{
  "transactions": [
    {
      "hash": "0x3779b177ee116eaf65b69233c83291dcc52317d4908ed20f55ac3ac9bf07dd47",
      "transactionType": "CALL",
      "contractName": null,
      "contractAddress": "0xa7800f93677723c1e3238ecd4bfdb2fa82df4fe0",
      "function": "transferOwnership(address)",
      "arguments": [
        "0x3E192d109d1dd323375Ac1Ed040f817918E82d63"
      ],
      "transaction": {
        "from": "0x47915cf5165227fb865cfb469c9eb406c793cce2",
        "to": "0xa7800f93677723c1e3238ecd4bfdb2fa82df4fe0",
        "gas": "0x9cd7",
        "value": "0x0",
        "input": "0xf2fde38b0000000000000000000000003e192d109d1dd323375ac1ed040f817918e82d63",
        "nonce": "0x3d4",
        "chainId": "0xa4ec"
      },
      "additionalContracts": [],
      "isFixedGasLimit": false
    }
  ],
  "receipts": [
    {
      "status": "0x1",
      "cumulativeGasUsed": "0x125e8",
      "logs": [
        {
          "address": "0xa7800f93677723c1e3238ecd4bfdb2fa82df4fe0",
          "topics": [
            "0x8be0079c531659141344cd1fd0a4f28419497f9722a3daafe3b4186f6b6457e0",
            "0x00000000000000000000000047915cf5165227fb865cfb469c9eb406c793cce2",
            "0x0000000000000000000000003e192d109d1dd323375ac1ed040f817918e82d63"
          ],
          "data": "0x",
          "blockHash": "0xad75d84d063c3d841f1f09f6cb7863bda4c76e70f90992705e4b447d6f16dd10",
          "blockNumber": "0x3dd2605",
          "blockTimestamp": "0x69e6ae5b",
          "transactionHash": "0x3779b177ee116eaf65b69233c83291dcc52317d4908ed20f55ac3ac9bf07dd47",
          "transactionIndex": "0x1",
          "logIndex": "0x0",
          "removed": false
        }
      ],
      "logsBloom": "0x00000000000000000000000000000000000000000000000000800000000000000080000000000000000000000000000000000000000000000000000000001000000000000000000000000000000000000001000000000000000000000000000000000000000000000000000002000000000000000000000000000000000000400000000000000000100000000000000000000000000000000000000000000000000000000000000000000000000000000000000000000000000000000400000000008000000000000000000000400000000000000100000000000000000000000000000000000000000000000000000000000000000000010000000000000000",
      "type": "0x2",
      "transactionHash": "0x3779b177ee116eaf65b69233c83291dcc52317d4908ed20f55ac3ac9bf07dd47",
      "transactionIndex": "0x1",
      "blockHash": "0xad75d84d063c3d841f1f09f6cb7863bda4c76e70f90992705e4b447d6f16dd10",
      "blockNumber": "0x3dd2605",
      "gasUsed": "0x718e",
      "effectiveGasPrice": "0xc393e6d00",
      "blobGasUsed": "0x64",
      "from": "0x47915cf5165227fb865cfb469c9eb406c793cce2",
      "to": "0xa7800f93677723c1e3238ecd4bfdb2fa82df4fe0",
      "contractAddress": null,
      "daFootprintGasScalar": "0x1",
      "l1BaseFeeScalar": "0x0",
      "l1BlobBaseFee": "0x15302a5",
      "l1BlobBaseFeeScalar": "0x0",
      "l1Fee": "0x0",
      "l1GasPrice": "0x16dc8725",
      "l1GasUsed": "0x640"
    }
  ],
  "libraries": [],
  "pending": [],
  "returns": {},
  "timestamp": 1776725596441,
  "chain": 42220,
  "commit": "1b0c263"
}